:040000002FEF00F0EE
:060008004482F5EF1FF039
:100018004480D8CF15F0E8CF16F0E0CF17F0D9CF4D
:1000280018F0DACF19F0F3CF1AF0F4CF1BF051EC37
:1000380029F009EC2AF01BC0F4FF1AC0F3FF19C01D
:10004800DAFF18C0D9FF17C0E0FF16C0E8FF15C0D7
:0A005800D8FF449010005AEF1EF08C
:1010000000312E3034004E4453000000AE6B08D344
:10101000606B616B626B636B646B666B440E656FD8
:10102000686B430E676F88EC13F0D96FD92901E123
:101030001AD3020EDA6F3C0EE46FE56BE66BE76BDA
:10104000F86BDB91DB95FFEC29F0000901E10BD394
:101050000001D9513DEC26F02C0E255C010E2658DE
:1010600001E201D30001DB79D951170D000EF32401
:101070001C6E020EF4201D6E1F6A1E68216A0A0E85
:10108000206E10EC28F0996B010E68EC0FF02CEC40
:101090001FF01CC01FF01DC020F0980E226E970E8E
:1010A000216E7EEC26F0E0C0A2F0E1C0A3F0E2C029
:1010B000A4F0E3C0A5F0970E0001A203F3CFA6F0C1
:1010C000F4CFA7F0A86BA96BA303F350A727F450A4
:1010D000A823000EA923980EA203F350A727F450CB
:1010E000A823000EA923970EA403F350A827F450B9
:1010F000A923980EA303F350A827F450A923000EA8
:10110000A203F350A827F450A923970EA503F35088
:10111000A927980EA403F350A927000EA303F350A8
:10112000A927000EA203F350A9271F50A625AA6FD6
:101130002050A721AB6F000EA821AC6F000EA92193
:10114000AD6F9CEC28F01C500001AA25DC6F1D50EF
:10115000AB21DD6F1E50AC21DE6F1F50AD21DF6F64
:10116000030EC0D0D9518CEC27F027502AE1FA0E9B
:10117000265C27E29CEC28F00001DC511C5CA26F8D
:10118000DD511D58A36FDE511E58A46FDF511F584B
:10119000A56FA5BF68D2A551A411A31103E1A205B3
:1011A00001E261D2E351E211E11108E1400EE05D9C
:1011B00005E2D890E037E137E237E337020E00016D
:1011C00091D00001DB872DEC0EF0020A01E04BD23A
:1011D000040E0001DA6FD9513DEC26F0020E255CB9
:1011E000010E265801E23FD20001D951170D000E21
:1011F000F3241C6E020EF4201D6E1F6A1E68216A05
:101200000A0E206E10EC28F0996B030E68EC0FF0BC
:101210002CEC1FF01CC01FF01DC020F0980E226E99
:10122000970E216E7EEC26F0E0C0A2F0E1C0A3F0A4
:10123000E2C0A4F0E3C0A5F0970E0001A203F3CF33
:10124000A6F0F4CFA7F0A86BA96BA303F350A727D0
:10125000F450A823000EA923980EA203F350A72749
:10126000F450A823000EA923970EA403F350A82737
:10127000F450A923980EA303F350A827F450A923F0
:10128000000EA203F350A827F450A923970EA5033C
:10129000F350A927980EA403F350A927000EA30327
:1012A000F350A927000EA203F350A9271F50A6252B
:1012B000AA6F2050A721AB6F000EA821AC6F000EC3
:1012C000A921AD6F9CEC28F01C500001AA25DC6F11
:1012D0001D50AB21DD6F1E50AC21DE6F1F50AD21C4
:1012E000DF6F050EDA6FBFD1D9518CEC27F0275094
:1012F00055E1FA0E265C52E29CEC28F00001DC512C
:101300001C5CA26FDD511D58A36FDE511E58A46FE7
:10131000DF511F58A56FA5BFA6D1A551A411A311D8
:1013200003E1A20501E29FD1E351E211E11101E1E4
:101330003DD744D70001D951ABEC25F00001D96964
:101340009CEC28F01CC0DCF01DC0DDF01EC0DEF0FF
:101350001FC0DFF0060E0001DA6FDB83DB81F8A12E
:1013600008D0ECC079F1EDC07AF1EEC07BF1EFC0AE
:101370007CF1F8A508D0F4C07DF1F5C07EF1F6C08F
:101380007FF1F7C080F1F8A36ED1F0C081F1F1C018
:1013900082F1F2C083F1F3C084F165D12DEC0EF03F
:1013A000050AC8E039D19CEC28F00001DC511C5C36
:1013B000A26FDD511D58A36FDE511E58A46FDF517F
:1013C0001F58A56FA551A41106E1970EA25D980EB6
:1013D000A35901E248D1E0C0A2F0E1C0A3F0E2C00D
:1013E000A4F0E3C0A5F0030EA203F3CFA6F0F4CF60
:1013F000A7F0A86BA96BA303F350A727F450A82369
:10140000000EA923A203F350A727F450A823000E2F
:10141000A923030EA403F350A827F450A923000E18
:10142000A303F350A827F450A923000EA203F350FE
:10143000A827F450A923030EA503F350A927000EF3
:10144000A403F350A927000EA303F350A927000E0D
:10145000A203F350A927E451A65DE551A759E6512F
:10146000A859E751A9590CE2970EDC27980EDD2305
:10147000000EDE23DF23E407E55BE65BE75BF3D0EA
:10148000606B616B626B636B646B666B440E656F64
:10149000686B430E676F88EC13F0D96FD92901E1AF
:1014A000E2D0070EDA6FD9513DEC26F0020E255C32
:1014B000010E265801E2D7D0010E0001996F030EEC
:1014C00068EC0FF00001DB952CEC1FF01CC01FF046
:1014D0001DC020F0980E226E970E216E7EEC26F035
:1014E000E0C0A2F0E1C0A3F0E2C0A4F0E3C0A5F028
:1014F000970E0001A203F3CFA6F0F4CFA7F0A86BDC
:10150000A96BA303F350A727F450A823000EA92327
:10151000980EA203F350A727F450A823000EA92386
:10152000970EA403F350A827F450A923980EA30301
:10153000F350A827F450A923000EA203F350A827C4
:10154000F450A923970EA503F350A927980EA403DE
:10155000F350A927000EA303F350A927000EA203FE
:10156000F350A9271F50A625AA6F2050A721AB6FC3
:10157000000EA821AC6F000EA921AD6F9CEC28F0E5
:101580001C500001AA25DC6F1D50AB21DD6F1E50E1
:10159000AC21DE6F1F50AD21DF6FDA2B64D0D95143
:1015A0008CEC27F0275034E1FA0E265C31E29CECFB
:1015B00028F00001DC511C5CA26FDD511D58A36FA7
:1015C000DE511E58A46FDF511F58A56FA5BF4BD029
:1015D000A551A411A31102E1A20545E3DA2B0C0EDB
:1015E000DA6541D0EBD50001D951ABEC25F0000113
:1015F000D9699CEC28F01CC0DCF01DC0DDF01EC0D9
:10160000DEF01FC0DFF0060E0001DA6FDB832BD0A7
:101610002DEC0EF0050AE7E0030A01E1CFD523D057
:10162000DA5121E0010A01E1F3D4030A01E103D513
:10163000010A01E197D5070A01E1CDD5010A01E1CF
:1016400053D6030A01E1AFD6010A01E12CD70F0AF4
:10165000A6E0010A01E127D7030AA1E0010A01E19E
:1016600022D7070A9CE00001AE2BAE51D9E0120050
:10167000040E0001D81901E01200D005D8A4120010
:1016800037EC25F01CC0F4F21DC0F5F21EC0F6F2D6
:101690001FC0F7F20201F7BFCCD0F751F611F511D8
:1016A00004E10D0EF45D01E2C4D00001D26BE60E40
:1016B0001C6E020E1D6E1F6A1E6A216A080E206EC5
:1016C00010EC28F0F4C26DF0F5C26EF0E60E6F6F0C
:1016D000020E706F000E716F000E726F746B0A0E47
:1016E000736FF7EC25F00201F86BF96B000EE8CF91
:1016F00041F3F84BF92B410EF825D96E030EF92171
:10170000DA6E050EDF6EF84BF92B410EF825D96E17
:10171000030EF921DA6EF9C0DFFFF84BF92B410E09
:10172000F825D96E030EF921DA6EFAC0DFFFF84B07
:10173000F92B410EF825D96E030EF921DA6EFBC0A4
:10174000DFFFF84BF92B410EF825D96E030EF92176
:10175000DA6EFCC0DFFFF84BF92B410EF825D96E8D
:10176000030EF921DA6EFDC0DFFFF84BF92B410EB5
:10177000F825D96E030EF921DA6EFEC0DFFFF84BB3
:10178000F92B410EF825D96E030EF921DA6E080EF9
:10179000DF6EF84BF92BF16B070EF06FE60EF025BC
:1017A000D96E020EF121DA6EDF5012E1410EF825FA
:1017B000D96E030EF921DA6EDF6AF84BF92BF007C8
:1017C000D8A0F107F1BF04D0F151E8E1F005E6E25D
:1017D000F26BF36B14D0410E0201F825D96E030EA3
:1017E000F921DA6EE60EF225E16E020EF321E26EC9
:1017F000E750D00FDF6EF84BF92BF24BF32BF25181
:10180000F05DF151800A0101ED6F0201F351800A90
:101810000101ED59E0E2410EE86F030EE96FEB6B59
:10182000110EEA6F41C0ECF165EC23F00001D26BC0
:101830001200F7BF07D0F751F611F5111DE10A0E9E
:10184000F45D1AE29CEC28F01CC044F11DC045F187
:101850001EC046F11FC047F1010E0001D66F080EF1
:10186000D261080C140ED225D96EDA6A010EDA2282
:10187000F4C2DFFFD22B12000B0EF419F511F61192
:10188000F7116CE10001D2515FE0000EE8CF41F3A7
:10189000030EE8CF42F323EE43F0F9C0DFFF23EE5F
:1018A00044F0FAC0DFFF23EE45F0FBC0DFFF23EE7C
:1018B00046F0FCC0DFFF23EE47F0FDC0DFFF23EE64
:1018C00048F0FEC0DFFF23EE49F0D2C0DFFF020187
:1018D000F26BF36B11D0140E0201F225D96E010EDA
:1018E000F321DA6E4A0EF225E16E030EF321E26E69
:1018F000DFCFE7FFF24BF32B0001D2510101ED6F77
:10190000EE6BED510201F25DF351800A0101EF6FC0
:10191000EE51800AEF59DFE3090E0001D2250201E2
:10192000EE6FEF6B000EEF23410E0101E86F030E27
:10193000E96FEEC2EAF1EFC2EBF141C0ECF165EC08
:1019400023F00001D26BD66B0101546B556B566BC3
:10195000576B0001D751D8B48C9412000A0EF419B9
:10196000F511F611F711D8A412000001D26BD66B55
:101970000101546B556B566B576B0001D751D8B4AE
:101980008C941200410E236E030E246EC9C025F004
:10199000CAC026F08DEC21F023C0CBF024C0CCF0DF
:1019A00023EE41F0DF500FE123EE42F0DF500BE178
:1019B0009CEC28F01CC048F11DC049F11EC04AF142
:1019C0001FC04BF1120023EE41F0DF5001E09FD029
:1019D00042C3E8FF040A01E09AD00001CCBF97D0CF
:1019E000CC5104E1070ECB5D01E291D0D70501E1B6
:1019F000120023EE43F0DF502F6E306A316A326AF4
:101A00002FC0EFF130C0F0F131C0F1F132C0F2F18E
:101A1000EFC1F2F10101F16BF06BEF6BEFC13CF143
:101A2000F0C13DF1F1C13EF1F2C13FF123EE44F0CE
:101A3000DF502F6E306A316A326A2FC0EFF130C04A
:101A4000F0F131C0F1F132C0F2F1F0C1F2F1EFC1C9
:101A5000F1F1F06BEF6BEF513C27F0513D23F15169
:101A60003E23F2513F2323EE45F0DF502F6E306AC4
:101A7000316A326A2FC0F0F130C0F1F131C0F2F1B9
:101A8000EF6BEF513C27F0513D23F1513E23F251D2
:101A90003F2323EE46F0DF502F6E306A316A326A00
:101AA0002F503C2730503D2331503E2332503F23AE
:101AB0003C513D113E113F111AE03CC138F13DC18E
:101AC00039F13EC13AF13FC13BF18E948E868C8450
:101AD000010E0001D76F47C3E8FF010A08E1E80ED5
:101AE000246E030E256E266A276A75EC27F09CEC9F
:101AF00028F01CC048F11DC049F11EC04AF11FC0AA
:101B00004BF10101546B556B566B576B120023EE72
:101B100041F0DF5015E142C3E8FF090A11E1020E6E
:101B20000001CB19CC110CE18E848E968C940101AE
:101B3000386B396B3A6B3B6B0001D76B7EEF22F051
:101B400023EE41F0DF5023E142C3E8FF0A0A1FE120
:101B5000020E0001CB19CC111AE18E848E968C9462
:101B60000101386B396B3A6B3B6B0001D76B41500D
:101B7000ABEC25F00001D86B9CEC28F01CC050F1B8
:101B80001DC051F11EC052F11FC053F1120023EECF
:101B900041F0DF503BE142C3E8FF060A37E1050EA2
:101BA0000001CB19CC1132E123EE43F0DF50356E4A
:101BB000366A355001016F6F6E6B23EE44F0DF50D3
:101BC000356E366A35506E2736506F239CEC28F000
:101BD0001CC054F11DC055F11EC056F11FC057F175
:101BE0000101406B416B426B436B406A45C3E8FFA8
:101BF000010AD8A4120054C140F155C141F156C1A7
:101C000042F157C143F1010E406E010C23EE41F049
:101C1000DF500DE142C3E8FF210A09E157EC10F063
:101C20000101546B556B566B576B8C94120023EE6D
:101C300041F0DF5006E142C3E8FF070A02E1B6EFD8
:101C40001FF023EE41F0DF50D8A4120042C3E8FF9A
:101C50000B0AD8B4F4EC1AF012000001656B6C0E9C
:101C6000FBEC27F0020E00016C1901E00ED1256A91
:101C70001C0E246EA2EC29F000016B6B6C0EFBECC9
:101C800027F0A60E00016B25D96EDA6A010EDA2262
:101C90006C51DE1801E019D16B2B050E6B65EED788
:101CA000DBB50FD0256A100E246EA2EC29F0EC0EE5
:101CB000236E246A266A040E256E8DEC21F0000145
:101CC000F881256AF00E246EA2EC29F00001646B05
:101CD0006C0EFBEC27F0000901E0C1D0D6D06C0EF1
:101CE000FBEC27F000016C0501E0EFD0650EFBEC8A
:101CF00027F00001DBA5C5D0020E651901E1E5D092
:101D0000C0D06C0EFBEC27F0040E00016C1901E052
:101D1000DCD0DBA50AD06B6B6C0EFBEC27F000016E
:101D20006B2B030E6B65F8D7ACD0F40E236E246AD0
:101D3000266A040E256E8DEC21F00001F885A1D0F5
:101D4000660EFBEC27F0030E00016665BED0DBA536
:101D50000AD06B6B6C0EFBEC27F000016B2B030EB3
:101D60006B65F8D70AD0F00E236E246A266A040E3B
:101D7000256E8DEC21F00001F883040E665F03D020
:101D80006C0EFBEC27F00001660766297AE0F8D7B5
:101D90006C0EFBEC27F0040E00016C1901E095D0ED
:101DA000670E030FFBEC27F0670E020FFBEC27F02A
:101DB000670E0001606F6029FBEC27F0670EFBECFB
:101DC00027F05FD0010E646F5CD06C0EFBEC27F047
:101DD000040E00016C1979E1DBA50AD06B6B6C0E67
:101DE000FBEC27F000016B2B030E6B65F8D749D095
:101DF000D90E0E0FFBEC27F0D90E0D0FFBEC27F0E0
:101E0000D90E0C0FFBEC27F0D90E0B0FFBEC27F0D3
:101E1000E4C060F0E5C061F0E6C062F0E7C063F0E6
:101E2000060E06D00001D89063336233613360330D
:101E3000E82EF8D76051E45F6151E55B6251E65BE3
:101E40006351E75B1ED0660EFBEC27F003D06C0EEF
:101E5000FBEC27F000016607662913E0F8D70001C4
:101E60006C51010A01E14DD7020A01E169D7300A3C
:101E7000ACE0060A01E133D7030A8AE0C90AA2E00E
:101E8000E2D70001645101E123D7020E0001651978
:101E90000AE167C0E8F068C0E9F069C0EAF06AC02A
:101EA000EBF0DB850DD06751E81909E16851E919BC
:101EB00006E16951EA1903E16A51EB1901E0656B2A
:101EC0001CEC2AF00001655112001CEC2AF0000CF9
:101ED000A16F010E46EC27F0010E46EC27F0060E2E
:101EE00046EC27F0000E46EC27F0120E46EC27F0E9
:101EF000230E46EC27F0340E46EC27F0560E46EC47
:101F000027F0000E46EC27F0000E46EC27F000010B
:101F1000DBB904D09F6B800E9E6F02D09E6B9F6BCF
:101F20009E5146EC27F0000E46EC27F0030E000110
:101F3000A1190BE1995109E0EC0E206E216A236A88
:101F4000040E226E93EC23F00CD0000E46EC27F02A
:101F5000000E46EC27F0000E46EC27F0000E46EC93
:101F600027F00001A06B000E46EC27F00001A02B2B
:101F70000B0EA065F8D7A60E206E010E216E236A07
:101F8000060E226E93EC23F00001A06B000E46ECCF
:101F900027F00001A02BC90EA065F8D7630E46EC10
:101FA00027F0820E46EC27F0530E46EC27F0630E26
:101FB00046EC27F0350E46EC27F0010E46EC27F0F4
:101FC0000001A15146EC27F00001A10501E1DB95DC
:101FD000030EA11918E1995116E1360E46EC27F0CF
:101FE000040E46EC27F00001EB5146EC27F000010F
:101FF000EA5146EC27F00001E95146EC27F00001D8
:10200000E85146EC27F0370E46EC27F0040E46EC7C
:1020100027F0010E46EC27F0030E46EC27F0060EE3
:1020200046EC27F00C0E46EC27F0030E0001A11938
:1020300002E1995107E0A10513E1EC51ED11EE1118
:10204000EF110EE0320E46EC27F0040E46EC27F0BE
:10205000EC0E206E216A236A040E226E93EC23F0AC
:10206000FF0E46EC27F003D0000E46EC27F02C0EB6
:102070000001C75D010EC859F7E379C19AF07AC132
:102080009BF07BC19CF07CC19DF0995105E1010161
:10209000796B7A6B7B6B7C6BCBEC12F09AC079F12D
:1020A0009BC07AF19CC07BF19DC07CF112000001C5
:1020B0006A6B6B6B6C6B6D6B686B696B410E236E3F
:1020C000030E246EC9C025F0CAC026F08DEC21F0A5
:1020D00023C0CBF024C0CCF023EE41F0DF5001E070
:1020E000CFD042C3E8FF210A01E0CAD023EE43F07B
:1020F000DF502F6E306A316A326A2FC064F030C010
:1021000065F031C066F032C067F064C067F000016E
:10211000666B656B646B64C06EF065C06FF066C023
:1021200070F067C071F023EE44F0DF502F6E306A1C
:10213000316A326A2FC064F030C065F031C066F099
:1021400032C067F065C067F064C066F0656B646BB1
:1021500064516E2765516F23665170236751712357
:1021600023EE45F0DF502F6E306A316A326A2FC09D
:1021700065F030C066F031C067F0646B64516E2763
:1021800065516F23665170236751712323EE46F02A
:10219000DF502F6E306A316A326A2F506E2730500E
:1021A0006F23315070233250712323EE47F0DF50FC
:1021B000356E366A35506B6F6A6B23EE48F0DF5030
:1021C000356E366A35506A2736506B2323EE49F058
:1021D000DF50356E366A35506D6F6C6B23EE4AF00A
:1021E000DF50356E366A35506C2736506D234BC341
:1021F00068F04CC369F06EC0C0F16FC0C1F16AC035
:10220000C2F16BC0C3F16CC0C4F16DC0C5F168C050
:10221000C6F169C0C7F1C00E246E010E256E72ECC6
:102220001FF0C00E246E010E256EA0EC1EF09CEC7B
:1022300028F01CC050F11DC051F11EC052F11FC04A
:1022400053F1040E0001D86F37EC25F0D26B010179
:10225000546B556B566B576B9CEC28F01CC048F1C7
:102260001DC049F11EC04AF11FC04BF19CEC28F083
:102270001CC04CF11DC04DF11EC04EF11FC04FF1EE
:10228000010C0101A5AD29D0FFEC29F00001BC6FC4
:10229000010174510001BC1918E0BCC074F1BC51BB
:1022A00014E18DC179F18EC17AF18FC17BF190C1BA
:1022B0007CF191C17DF192C17EF193C17FF194C116
:1022C00080F10101A58F9DEC26F006EC08F05FEC93
:1022D0002AF0000902E00101A59F0AEC12F01CECB3
:1022E0002AF0BA0E266E010E276EBB0E286E0FEC7A
:1022F0001CF0000901E086D01200DFEC15F0EFD7EA
:10230000B60E856F010E866FBF0E876FBD0E886F8C
:10231000C00ECDEC17F00009E2E0BF055FE101015E
:1023200079510001C0190FE101017A510001C11971
:102330000AE101017B510001C21905E101017C5153
:102340000001C31940E0C02906E1C12904E1C22906
:1023500002E1C32938E07DC1AFF07EC1B0F07FC19A
:10236000B1F080C1B2F0AF1FB01FB11FB21F0101A9
:1023700079517D150001B36F01017A517E1500017D
:10238000B46F01017B517F150001B56F01017C51D4
:1023900080150001B66FAF51B311B76FB051B411D2
:1023A000B86FB151B511B96FB251B611BA6FC05112
:1023B000B71995E1C151B81992E1C251B9198FE12C
:1023C000C351BA198CE1B60E856F010E866FBDC080
:1023D00087F0BEC088F0BFEC1CF081D7110EBF198A
:1023E00001E07DD7B60E7D6F010E7E6FC00E7F6F50
:1023F000BDC080F0BEC081F051EC15F0000901E1D4
:102400006ED712000001BB5101E17AD7060A01E143
:1024100074D765D70001926B9251170D0E0EF324FD
:10242000D96E020EF420DA6E050EDE1801E1AED090
:102430009251170D0E0EF324D96E020EF420DA6EAF
:10244000040EDE1801E1A2D090D063EC28F0000168
:102450009251170D150EF324D96E020EF420DA6E88
:102460001CC0DEFF1DC0DDFF9251170D000EF324CE
:10247000606F020EF420616F11EC19F000019251AF
:10248000170D0E0EF324D96E020EF420DA6E030E31
:102490006AD09251170D000EF3241C6E020EF42028
:1024A0001D6E9251170D040EF3241E6E020EF420C1
:1024B0001F6E73EC19F000094CE100019251170DE9
:1024C000150EF324D96E020EF420DA6EDECF8EF0F4
:1024D000DDCF8FF063EC28F000018E511C5E8F5130
:1024E0001D5A9251170D0F0EF324D96E020EF420CF
:1024F000DA6E1C50DE5C1D50DE5848E29251170D1A
:10250000130EF324D96E020EF420DA6E060EDF608D
:1025100016D09251170D130EF324D96E020EF4202B
:10252000DA6EDF2A9251170D0F0EF324D96E020EC8
:10253000F420DA6ED890DE36DE36DE36DE369251A4
:10254000170D0E0EF324D96E020EF420DA6E020E71
:102550000AD000019251170D0E0EF324D96E020E0F
:10256000F420DA6E050EDF6E11D09251170D0E0EAB
:10257000F324D96E020EF420DA6EDF50020A01E174
:1025800064D7010A86E0070AD8A4010A922B090E33
:10259000926542D7090C0001CE51170D000EF324AD
:1025A000816F020EF420826F080EC725836F000E24
:1025B000C821846F20EE0CF08151D9268251DA2295
:1025C000DECF1CF0DDCF1DF042EC29F01CC085F001
:1025D0001DC086F0000120EE0AF08151D9268251FB
:1025E000DA22DECF1CF0DDCF1DF042EC29F01CC05A
:1025F00087F01DC088F083C01CF084C01DF042EC41
:1026000029F01CC089F01DC08AF000018B6B8C6B17
:1026100079C18DF07AC18EF07BC18FF07CC190F0D2
:1026200081C0D9FF82C0DAFFDECF91F0DECF92F019
:10263000DECF93F0DECF94F0956B110E966F83C0D2
:1026400097F084C098F097C01CF098C01DF042EC41
:1026500029F01CC097F01DC098F01D6A0C0E1C6E6E
:102660008D0EE6EC1EF01C1C00018B6F1D1C8C6F88
:102670001A0E1D6E190E1C6E56EC2AF081C060F009
:1026800082C061F0110E0001626F83C063F084C0EC
:1026900064F015EC1DF0850E1C6E1D6A1F6A080E95
:1026A0001E6E76EC28F01A0E1D6E2D0E1C6E88EC38
:1026B00029F01CC07DF01DC07EF083C023F084C0D3
:1026C00024F0A9EC18F023C07FF024C080F07F51E3
:1026D000801102E17F6980697DC01CF07EC01DF021
:1026E00088EC29F01A0E1D6E330E1C6E56EC2AF083
:1026F0007F0E1C6E1D6A1F6A020E1E6E76EC28F09D
:1027000005EC29F00001C76BC86B0101E6691200F6
:10271000000E6A6F020E6B6F696B20EE0CF06A514F
:10272000D9266B51DA22DE50DE1001E08AD020EE8D
:102730000CF06A51D9266B51DA2265C0DEFF66C003
:10274000DDFF6551661119E101016405200E65592F
:1027500003E2100E655D03E2100E656F646B00010D
:1027600020EE0CF06A51D9266B51DA2264C1DEFFEB
:1027700065C1DDFF0101644B652B0001645105E07B
:10278000605161116211631149E16AC01CF06BC0B4
:102790001DF01F6A1E68216A0A0E206E10EC28F0D8
:1027A00034D06AC0D9FF6BC0DAFF60C0DEFF61C001
:1027B000DEFF62C0DEFF63C0DEFF20EE13F06A5171
:1027C000D9266B51DA22DF6A20EE0FF06A51D92642
:1027D0006B51DA22260EDE6EDE6ADE6ADD6A20EEDC
:1027E0000EF06A51D9266B51DA22020E15D06AC05A
:1027F0001CF06BC01DF060C01EF061C01FF0216AAC
:102800000A0E206EEEEC23F0000120EE0EF06A516D
:10281000D9266B51DA22050EDF6E05D06451030A0A
:10282000C0E0070AE4E020EE0AF06A51D9266B51B5
:10283000DA2267C0DEFF68C0DDFF69C0CEF06951F3
:102840001200170E6A27000E6B23692B090E6965AB
:1028500064D7FF0C646B656B1D2808E11E2806E138
:10286000010E646FE2CE1DF0E3CE1EF01F2808E1DA
:10287000202806E1010E656F7ACF1FF07BCF20F094
:1028800022502EE1020E215C2BE27ACF60F07BCF4A
:1028900061F0E2CE62F0E3CE63F01FC07AFF20C0A9
:1028A0007BFF1DC0E2FE1EC0E3FE04D06CEC2AF0EC
:1028B00046EC2AF02106D8A022062128F7E122289A
:1028C000F5E10001655104E160C07AFF61C07BFF62
:1028D0006451D8A4120062C0E2FE63C0E3FE12009D
:1028E00064510AE021501D24626F22501E20636F44
:1028F00062C0E2FE63C0E3FE236824681FC025F0C7
:1029000020C026F02350252624502622255021269B
:1029100026502222D2BAFED71FC0F0FE20C0F1FE00
:102920001DC0F4FE1EC0F5FE0A0E1F5C1A0E2058D4
:1029300009E20A0E215C1A0E225804E30A0E215EF7
:102940001A0E225A21C0F2FE22C0F3FED298D28A79
:10295000D2BAFED76551D8B41200214A222A0A0EF3
:102960001F5C1A0E205809E20A0E215C1A0E22582A
:1029700004E30A0E215E1A0E225A21C07AFF22C0F9
:102980007BFF1200C2CF7DF0C0CF7EF0D5CF7FF0AD
:10299000D6CF81F0D7CF80F0010EC26E3F0EC06E51
:1029A000880ED56E00017C6B786B796B7A6B7B6BD4
:1029B000826B836B2CEC1FF01CC084F01DC085F073
:1029C0000001866B876BD76AD66AC2820400C2B2E6
:1029D000FED7D6CF88F0D7CF89F02CEC1FF01CC0E3
:1029E00076F01DC077F0000188517827895179234E
:1029F000000E7A237B237B5107E1800E785D960ED3
:102A00007959980E7A590FE32CEC1FF01C500001F5
:102A1000841B1D50851B2CEC1FF01C500001861BD5
:102A20001D50871B2BD08851821903E189518319CE
:102A3000CAE08851825D746F89518359756F7651F0
:102A400074277751752374C01FF075C020F0216A78
:102A5000226A2CEC27F088C082F089C083F0000144
:102A6000D89084378537863787372CEC1FF01CAE1B
:102A700002D00001848100017C3FA5D77DC0C2FF48
:102A80007EC0C0FF80C0D7FF81C0D6FF7FC0D5FF0A
:102A900084C070F085C071F086C072F087C073F09A
:102AA0001200336A346A930E1C6E1D6A1F6A080E88
:102AB0001E6E85EC25F093C01CF094C01DF042EC16
:102AC00029F01CC093F01DC094F095C01CF096C076
:102AD0001DF042EC29F01CC095F01DC096F097C087
:102AE0001CF098C01DF042EC29F0F80E1C240001E7
:102AF000976FFF0E1D20986F99519A114AE07DC083
:102B0000D9FF7EC0DAFFDECF87F0DECF88F0DECFE0
:102B100089F0DECF8AF07F51D96EDA6ADECF8BF092
:102B2000DECF8CF0DECF8DF0DECF8EF08F6B110E0E
:102B3000906F80C091F081C092F091C01CF092C063
:102B40001DF042EC29F01CC091F01DC092F01D6AEE
:102B50000C0E1C6E870EE6EC1EF01C1C0001836F31
:102B60001D1C846F236A226A25EC2AF080C023F0A2
:102B700081C024F0A9EC18F023C085F024C086F0B1
:102B80008351851903E18451861903E0D8EC26F0BE
:102B9000000C7DC026F07EC027F07FC028F0930E89
:102BA00062EC16F00001826F8229F0E082C043F0EF
:102BB00097C033F098C034F03B803B92010C7AD040
:102BC000600E1C6E1D6A1F6A1C0E1E6E85EC25F0C1
:102BD000D8EC26F0600EE9EC20F0000160056111F0
:102BE000D8A41200060E6419D8A41200040E6519A8
:102BF00001E01200020E6619671112E120EE68F082
:102C000011EE0EF0050EDBCFE3FFE806FCE26EC02E
:102C10000AF16FC00BF170C00CF171C00DF1120020
:102C20006605671129E1010179510001781949E12F
:102C300001017A510001791944E101017B51000140
:102C40007A193FE101017C5100017B1901E012007A
:102C50006EC000F16FC001F170C002F171C003F1EC
:102C600020EE68F011EE04F0050EDBCFE3FFE8067E
:102C7000FCE2010E0101726F0001676B020E666FCC
:102C800021EE04F010EE72F0050EDBCFE3FFE80654
:102C9000FCE200C178F001C179F002C17AF003C111
:102CA0007BF0600ED5EC19F0000901E11200010182
:102CB000726B12000101725183E0010AD8A4120064
:102CC000DBD71200686F26C0D9FF27C0DAFF0101E9
:102CD0007951DE180AE17A51DE1807E17B51DE18DE
:102CE00004E17C51DE1801E1FF0C00016969000E6E
:102CF0006B6F020E6C6F6A6B6851D96EDA6A020EE6
:102D0000D92610EE0CF06B51E1266C51E222DE5018
:102D1000E6182AE1DE50E61827E16851D96EDA6A32
:102D200010EE0AF06B51E1266C51E222DE50E618FB
:102D300019E1DE50E61816E126C0D9FF27C0DAFFF8
:102D40006BC0E1FF6CC0E2FFDE50E6180BE1DE5025
:102D5000E61808E1DE50E61805E1DE50E61802E16B
:102D60006A5112006AC069F0170E6B27000E6C23BF
:102D70006A2B090E6A65C0D7692923E06951170DCE
:102D8000000EF3246B6F020EF4206C6F6BC01CF00E
:102D90006CC01DF026C01EF027C01FF0216A0A0E6D
:102DA000206EEEEC23F000016851D96EDA6A10EE65
:102DB0000AF06B51E1266C51E222DECFE6FFDDCF57
:102DC000E5FF6951120062C068F063C069F064C039
:102DD0006AF065C06BF068C01CF069C01DF06AC085
:102DE0001EF06BC01FF066C020F067C021F0000E1F
:102DF00021BEFF0E226E236EAEEC20F01CC068F0E8
:102E00001DC069F01EC06AF01FC06BF0604B612BE3
:102E1000685169116A116B11DEE160C0D9FF61C0B0
:102E2000DAFFDF6A6007D8A0610762C01CF063C0E8
:102E30001DF064C01EF065C01FF066C020F067C0C2
:102E400021F0000E21BEFF0E226E236EBFEC21F09A
:102E50001C506C6F62C01CF063C01DF064C01EF09B
:102E600065C01FF066C020F067C021F0000E21BED3
:102E7000FF0E226E236EAEEC20F01CC062F01DC06F
:102E800063F01EC064F01FC065F0090E6C6502D0CF
:102E9000070E6C27300E6C2760C0D9FF61C0DAFFC7
:102EA0006CC0DFFF6007D8A0610762516311641135
:102EB0006511BBE112000101545155115611571112
:102EC00001E112009CEC28F0010154511C5C00014E
:102ED000606F010155511D580001616F010156518C
:102EE0001E580001626F010157511F580001636FA6
:102EF0006EC164F06FC165F0000E65BFFF0E666FB6
:102F0000676F970E6403F3CF68F0F4CF69F06A6BD4
:102F10006B6B6503F3506927F4506A23000E6B2333
:102F2000980E6403F3506927F4506A23000E6B2354
:102F3000970E6603F3506A27F4506B23980E6503CF
:102F4000F3506A27F4506B23000E6403F3506A2792
:102F5000F4506B23970E6703F3506B27980E6603AC
:102F6000F3506B27000E6503F3506B27000E6403CC
:102F7000F3506B276051685D6151695962516A591C
:102F800063516B59D8B01200D56B406A0101546B84
:102F9000556B566B576B8C9412008F6F900E1C6E96
:102FA0001D6A1F6A140E1E6E85EC25F000019051FB
:102FB000F00B400A01E0000C1F0E896F8A6920EEB9
:102FC00096F0DECF8BF0DDCF8CF089518B178A51D4
:102FD0008C178B518C1101E0000C90C089F00F0E02
:102FE0008917D8908937D8908935CD6F7E6B7D6BE6
:102FF000CDC07FF0806B59EC21F07DC08DF07EC09C
:103000008EF0CDC01CF01D6A11EC27F000018D512F
:103010008E1101E0000C900E34EC20F000018F5175
:103020000DE020EEA0F08F51E16EE26ADECFE6FF08
:10303000DECFE6FFDECFE6FFDECFE6FF20EE9CF040
:1030400085C0E1FF86C0E2FFDECFE6FFDECFE6FF10
:10305000DECFE6FFDECFE6FF8751D96EDA6A99C090
:10306000DFFFCD51925D896F000E93598A6F8851B1
:10307000D96EDA6A89C0DEFF8AC0DDFF010C8E845A
:103080008E96E0EC29F0206A1F6AB1EC1BF02EEC62
:103090002AF00101A58DAFEC29F0BCEC1DF0E9ECA4
:1030A00024F024EC29F004009CEC28F0010160518C
:1030B0001C5CF36F61511D58F46F62511E58F56F1F
:1030C00063511F58F66FF651F51105E1980EF35D47
:1030D000980EF4590BE39CEC28F01CC060F11DC065
:1030E00061F11EC062F11FC063F18B7441EC11F0FD
:1030F0007BEC29F060EC29F053EC1BF024D0A5AD5B
:103100000CD0FFEC29F00009CEE05FEC2AF00009BA
:10311000CAE0010E0101786FC6D7FFEC29F0000963
:10312000F8E1C1D7FFEC29F0000905E1D4EC28F063
:103130000101786BB8D70101A5ADB5D75FEC2AF0D6
:103140000009F4E0B0D701017851D9E0010AEAE0C2
:10315000AAD71CC177F01DC178F01EC179F01FC13C
:103160007AF07ACF74F07BCF75F03ED0245008E12E
:10317000150E235C05E223C07BF024C07CF004D054
:1031800000017C6B140E7B6F600E1C6E1D6A7BC091
:103190001EF07CC01FF085EC25F000017B51235E02
:1031A0007C51245A7BA107D07B51600FD96EDA6A1B
:1031B000DF6A7B4B7C2B600E766F13D07651D96E15
:1031C000DA6ADECF25F0DDCF26F0255077272650AE
:1031D0007823000E79237A23020E76277B5F000E78
:1031E0007C5B7B517C11EAE123502410BFE174C069
:1031F0007AFF75C07BFF000177517925776F785191
:103200007A21786F796BD8B0792B7A6B20EE79F0D0
:10321000DE507727DD507823771D236E781D246ECE
:103220001200796B010E786F8469856986698769F8
:103230008869896960C0D9FF61C0DAFFDECF62F0BA
:10324000DECF63F0DECF64F0DECF65F001017951AF
:1032500000016219666F01017A5100016319676FFD
:1032600001017B5100016419686F01017C5100016B
:103270006519696F01017D51000166156A6F0101D1
:103280007E51000167156B6F01017F5100016815C8
:103290006C6F01018051000169156D6F6A516B11EE
:1032A0006C116D110DE160C0D9FF61C0DAFFDECF96
:1032B0006EF0DECF6FF0DECF70F0DECF71F008D0B1
:1032C00081C16EF082C16FF083C170F084C171F072
:1032D0006EC08AF06FC08BF070C08CF071C08DF042
:1032E000720ED5EF19F01CC0D9FF1DC0DAFF010125
:1032F0000A51DE1809E10B51DE1806E10C51DE1807
:1033000003E10D51DE1844E00A5181194DE10B51E2
:1033100082194AE10C51831947E10D51841944E1A6
:103320001CC0D9FF1DC0DAFFDECF60F0DECF61F038
:10333000DECF62F0DECF63F0795100016019646F77
:1033400001017A5100016119656F01017B51000192
:103350006219666F01017C5100016319676F0101F9
:103360007D5100016415686F01017E5100016515F2
:10337000696F01017F51000166156A6F010180517B
:10338000000167156B6F685169116A116B110CE0D0
:1033900021EE0EF01EC0E1FF1FC0E2FF050EDBCFE5
:1033A000E3FFE806FCE2010C000C286EC2EC28F0FA
:1033B0000009FCE01A0E1D6E0B0E1C6E56EC2AF076
:1033C0002850D96EDA6A010EDE6EDD6A2850D96E99
:1033D000DA6A020ED926DE6A080EDD6E2850D96E32
:1033E000DA6A040ED926060EDF6E2850D96EDA6A24
:1033F000050ED926040EDF6E28C027F0080E2726FA
:1034000027C01CF01D6AA60E1E6E010E1F6E216ADB
:10341000060E206EEEEC23F02850D96EDA6A0E0EFE
:10342000D92679C1DEFF7AC1DEFF7BC1DEFF7CC118
:10343000DEFF2850E9EC20F028C027F0120E2726E6
:1034400027C020F0216A060E226E246A1C0E236E0D
:10345000C1EC23F028C01CF01D6A1F6A1C0E1E6EF2
:1034600076EC28F005EC29F0010C01017605D8A4D2
:103470001200AFEC28F001012451015C096E2551C6
:1034800002580A6E265103580B6E275104580C6ED1
:1034900028C10DF029C10EF02AC10FF02BC110F088
:1034A000270E0D02F3CF11F0F4CF12F0136A146A55
:1034B0000E02F3501226F4501322000E14220D02B5
:1034C000F3501226F4501322000E1422270E0F027E
:1034D000F3501326F4501422000E0E02F35013265C
:1034E000F4501422000E0D02F3501326F45014224F
:1034F000270E1002F3501426000E0F02F35014266C
:10350000000E0E02F3501426000E0D02F350142686
:103510000950115C0A5012580B5013580C50145893
:10352000D8B012008C92766B1200FC0E92160E012F
:10353000FE8BFDA1FED7010E3C6E0101686B696B2D
:103540000E01E86BE96B090EEC6F1A0EED6FEB6F75
:10355000090EEA6F1A0EE56F0A0EE46F1A0EE36F9A
:103560000A0EE26F000E46EC2AF00D0E0E01A06F5F
:1035700000F0320EA26F00F0120EA46F00F0400EA9
:10358000A36F00F0120EA66F00F00C0EA76F00F0F4
:10359000EE0EAA6F00F0050EAB6F00F0A6C184FE20
:1035A00000F0A7C185FE00F0A8C182FE00F0A9C10D
:1035B00083FE00F0AAC180FE00F0ABC181FE00F0E6
:1035C000010E1D6E100E1C6E5EEC27F0340E1D6E8B
:1035D000720E1C6E140E5EEC27F0000E1D6A1C6A43
:1035E0005EEC27F0D2841200000EE8CF41F30C0EFF
:1035F000E8CF42F323EE43F0F9C0DFFF23EE44F0BF
:10360000FAC0DFFF23EE45F0FBC0DFFF23EE46F0FC
:10361000FCC0DFFF23EE47F0FDC0DFFF23EE48F0E4
:10362000FEC0DFFF0101EE6BEE51010F0001C66F1E
:10363000C6C0F6FF100EF76E000EF86E4A0E0101BE
:10364000EE25D96EDA6A030EDA220800F5CFDFFF25
:10365000EE51010F0001C66FC6C0F6FF100EF76EE7
:10366000000EF86E0800F55004E00101EE2BEE2983
:10367000DBE1EEC1EDF123EE49F0EDC1DFFF040E19
:103680000001D819D8A41200410E0101E86F030E01
:10369000E96F090EED25EA6FEB6B000EEB2341C0DD
:1036A000ECF165EF23F023EC21F05BEC17F089ECF3
:1036B00028F000094AE07EEC22F047D033EC29F0F4
:1036C0000DEF1EF041503DEC26F02550261002E093
:1036D00068EF1CF012005EEC25F041508CEC27F0F6
:1036E00026C0C9F027C0CAF00001C951CA11D8B418
:1036F0001200F0EF21F0D1EC25F041508CEC27F0D6
:1037000026C0C9F027C0CAF00001C951CA11D8B4F7
:10371000120057EC10F0E806D8A4120044EF24F091
:1037200041508CEC27F026C0C9F027C0CAF010EC3D
:1037300025F00001C951CA1102E0C2EC0CF069EC9D
:103740001DF098EC24F038EF0BF00001D851B6E0F2
:10375000010AB8E0030ABFE0010ACDE0070AE0E091
:10376000120021EEC8F010EE60F0110EDBCFE3FF87
:10377000E806FCE2986A976A949094929494949ED6
:10378000949C956A8C928C94996A9380938293848A
:103790009386998099828B908B928B948B9E8B8C45
:1037A000400E9B6E010EC26E0E0EC16EBE0EC06E3E
:1037B000F19ED08EF28EF28CF19CF19AF288F08616
:1037C000F292F090F08CC28EC282C2B2FED7C29E3C
:1037D000350ECD6E9D809F909E907F0ECA6E9D92FD
:1037E0009F829E92CB6812D07451600FC1EC24F07E
:1037F000216E00017251F90FD96EDA6A21C0DFFF24
:10380000724B732B030E7427000E7523000175BFD6
:10381000EBD7755103E1110E745DE6E312000E0162
:10382000D95101E1000C3C5003E1D8EC26F0000C2A
:1038300068C166F169C167F166C17AFF67C17BFF44
:10384000600E1C6E1D6A1F6A140E1E6E85EC25F03C
:1038500072C01CF073C01DF042EC29F01CC072F065
:103860001DC073F00A0E0001605D1A0E61590BE273
:1038700060A165BF08D064B906D0EF0E625D050E89
:10388000635901E264AFFF0060C068F161C069F193
:1038900026C01CF027C01DF06C0E1E6E1F6A216A28
:1038A000060E206EEEEC23F02850D96EDA6ADF683F
:1038B000080E000173190AE1725103E0060E721935
:1038C00005E12850D96EDA6A72C0DFFF3C6A010C4C
:1038D0009CEC28F0010150511C5CED6F51511D58BA
:1038E000EE6F52511E58EF6F53511F58F06FF05149
:1038F000EF1106E1980EED5D980EEE59D8A012007A
:10390000000EE8CF41F3010EE8CF42F323EE43F07F
:10391000F9C0DFFF23EE44F0FAC0DFFF23EE45F0ED
:10392000FBC0DFFF23EE46F0FCC0DFFF23EE47F0D5
:10393000FDC0DFFF23EE48F0FEC0DFFF410EE86F61
:10394000030EE96FEB6B080EEA6F41C0ECF165EC1A
:1039500023F09CEC28F01CC050F11DC051F11EC09A
:1039600052F11FC053F101016DBF12006D5103E10F
:103970006C05D8A01200020E0001D86F020C890E4F
:103980001C6E1D6A1F6A040E1E6E85EC25F0080E63
:10399000000189198A11D8A412007E6B140E7D6F64
:1039A00087C07FF088C080F059EC21F07D517E11F6
:1039B00001E01200896B080E8B278B6104D08C2BE1
:1039C0008C5101E18B2BC2EC28F00009FCE01A0EAF
:1039D0001D6E190E1C6E56EC2AF085C060F086C074
:1039E00061F0010E0001626F87C063F088C064F06F
:1039F00015EC1DF0890E1C6E1D6A1F6A040E1E6EEA
:103A000076EC28F01E681D6820681F68FC0E000117
:103A10008725216EFF0E8821226E2AEC14F063ECBC
:103A20002AF00009FCE005EF29F0140ECD6F450ED9
:103A3000656F666B140E6325676F000E6421686FF7
:103A400001016A4B6B2B6AC169F06BC16AF000011E
:103A50006B6B6C6B640E6D6F62C06EF06F6B706B36
:103A600079C171F07AC172F07BC173F07CC174F0DE
:103A700060C0D9FF61C0DAFFDECF75F0DECF76F02F
:103A8000DECF77F0DECF78F0650E34EC20F01D6AE3
:103A9000140E1C6E650EE6EC1EF01CC06FF01DC00F
:103AA00070F0040E00016025206E000E6121216E71
:103AB000226A140E6325236E000E6421246EC1EC6D
:103AC00023F0650E1C6E1D6A1F6A140E1E6E81EFB8
:103AD00028F09CEC28F001014C511C5CED6F4D511D
:103AE0001D58EE6F4E511E58EF6F4F511F58F06F1B
:103AF000F05108E12F0EED5D310EEE59010EEF5938
:103B0000D8A0120051EC2AF0000902E04FEC22F09C
:103B1000000EE8CF41F3E8CF42F323EE43F0F9C0C3
:103B2000DFFF23EE44F0FAC0DFFF23EE45F0FBC0D9
:103B3000DFFF23EE46F0FCC0DFFF23EE47F0FDC0C1
:103B4000DFFF23EE48F0FEC0DFFF410E0101E86F0A
:103B5000030EE96FEB6B080EEA6F41C0ECF165EC08
:103B600023F09CEC28F01CC04CF11DC04DF11EC090
:103B70004EF11FC04FF112000101A58FA60E1C6E61
:103B8000010E1D6EF90E1E6E1F6A216A060E206E52
:103B9000EEEC23F0C00E0101796FA80E7A6F7B6BFB
:103BA0001E0E7C6F79C18DF17AC18EF17BC18FF1D0
:103BB0007CC190F17D697E697F69806B7DC191F1E7
:103BC0007EC192F17FC193F180C194F1C00E816FEB
:103BD000A80E826F836B010E846FC00E856FA80ED6
:103BE000866F876B010E886F896B8A6B8B6B8C6B12
:103BF000950E1C6E010E1D6E060E1E6E1E50D8A474
:103C0000100E1F6E216A100E206EEEEC23F0950E42
:103C1000216E010E226E19EF24F09CEC28F00101B8
:103C200050511C5C00016C6F010151511D58000185
:103C30006D6F010152511E5800016E6F0101535109
:103C40001F5800016F6F6F516E1106E1980E6C5D89
:103C5000980E6D59D8A01200AC0E1C6E010E1D6E90
:103C60001F6A1E68216A0A0E206E10EC28F0AC0E46
:103C7000606F010E616F000E626F000E636F040EC5
:103C8000646F666B656B460E686F500E676F88ECED
:103C900013F0416E41280AE19CEC28F01CC050F161
:103CA0001DC051F11EC052F11FC053F1010E0001A1
:103CB000D86F010C03EE41F011EEF4F0EE6AE5501E
:103CC000E150FCE1E250FAE103EE00F0410EEE6A51
:103CD000E806FDE102EE00F0E60EEE6AE806FDE120
:103CE00001EE00F0C80EEE6AE806FDE100EEC7F056
:103CF000380EEE6AE806FDE100EE29F01A0EEE6AD3
:103D0000E806FDE1CA0EF66E510EF76E000EF86E73
:103D100001EEC8F010EE20F00900F5CFEEFFE550FF
:103D2000E150FAE1DA0EF66E540EF76E000EF86E00
:103D30000900F5CF43F04490449200013FEF18F0A2
:103D400020EE02F02450D9262550DA22DE50DE1073
:103D500003E10001D36B2DD0010E0001D36F20EEE3
:103D600002F02450D9262550DA22DECF60F0DDCFD4
:103D700061F0E80E6003F3CF62F0F4CF63F061030B
:103D8000F3506327030E6003F350632762C01CF0F7
:103D900063C01DF01F6A320E1E6E72EC20F01CC054
:103DA000DEF11DC0DFF10101000EDFBFFF0EE06F8D
:103DB000E16F20EE06F02450D9262550DA22DE04E9
:103DC00003E1010E3E6E010C3E6A1200226ED89095
:103DD0001D301E6E1C30206E1EC021F022C023F04C
:103DE000246A256A266A276A10D02350D96EDA6AB7
:103DF000DECF1EF0DDCF1FF01E5024261F502522DF
:103E0000000E26222722020E23262006D8A02106F5
:103E10002028EBE12128E9E11CA009D02350D96E2C
:103E2000DA6ADF502426000E25222622272224507B
:103E30002624246E25502720256E266AD8B0262AEF
:103E4000276A20EE26F0DE502426DD502522241C91
:103E50001C6E251C1D6E12001E6A010E0101DA1572
:103E60000001606F616B626B636B60510008646F8F
:103E7000000E6155656F000E6255666F000E63554A
:103E8000676F010E6415686F696B6A6BD00E6715FA
:103E90006B6FDAC16CF0DBC16DF0DCC16EF0DDC1BF
:103EA0006FF0D8906F336E336D336C3368516C198B
:103EB0000101DA6F000169516D190101DB6F000129
:103EC0006A516E190101DC6F00016B516F1901011C
:103ED000DD6F1E2A0E0E1E64C0D7DAC11CF0DBC1D6
:103EE0001DF00E0C20EE07F02450D9262550DA22C2
:103EF000DE0403E1010ED46F01D0D46B20EE04F098
:103F00002450D9262550DA22DE50DE1002E13F6A25
:103F10001200010E3F6E20EE04F02450D9262550E9
:103F2000DA22DECF60F0DDCF61F0E80E6003F3CF80
:103F300062F0F4CF63F06103F3506327030E600374
:103F4000F350632762C01CF063C01DF01F6A320E7D
:103F50001E6E72EC20F01CC0E2F11DC0E3F1010105
:103F6000000EE3BFFF0EE46FE56F1200000EE8CF16
:103F700041F3080EE8CF42F323EE43F0F9C0DFFF30
:103F800023EE44F0FAC0DFFF23EE45F0FBC0DFFF75
:103F900023EE46F0FCC0DFFF23EE47F0FDC0DFFF5D
:103FA00023EE48F0FEC0DFFF8EA48EA602D0010EE5
:103FB00001D0000EE8CF49F35BEC2AF0E806010ED1
:103FC000D8A4000EE8CF4AF3040E0001D819D8A4F3
:103FD0001200410E0101E86F030EE96FEB6B0A0E50
:103FE000EA6F41C0ECF165EF23F0F0B002D0F2A22D
:103FF00015D09D829E92CC6A0101776B0001D06B37
:104000000101D890583759375A375B37F0A002D0A2
:10401000588103D0FE0E5817FF0E422A9EA220D0D0
:10402000020E0101776104D09E92CC6A772B18D0E2
:104030009D929E92040E421808E01A0E421809E161
:10404000585159115A115B1104E0010E0001D06F53
:1040500006D0586B596B5A6B5B6B0001D06B426A90
:10406000F292F09044921100216E2150D96EDA6ADA
:10407000020ED926DECF1CF0DDCF1DF042EC29F078
:104080002150D96EDA6A020ED9261CC0DEFF1DC08F
:10409000DDFF2150D96EDA6A040ED926DECF1CF07E
:1040A000DDCF1DF042EC29F02150D96EDA6A040E02
:1040B000D9261CC0DEFF1DC0DDFF2150D96EDA6A93
:1040C0000A0ED926DECF1CF0DDCF1DF042EC29F020
:1040D0002150D96EDA6A0A0ED9261CC0DEFF1DC037
:1040E000DDFF0A0C216A1FAE06D01E6C1F1ED8B061
:1040F0001F2A010E216E1DAE06D01C6C1D1ED8B0ED
:104100001D2A010E211A226A236A1E501F101BE06D
:10411000010E206E04D0D8901E361F36202A1FAE06
:10412000FAD7D890223623361E501C5C1F501D58DB
:1041300005E31E501C5E1F501D5A2280D8901F326E
:104140001E32202EEED7215004E0226C231ED8B060
:10415000232A22C01CF023C01DF01200246A256A05
:10416000266A276A205021102210231029E0010E10
:10417000286E06D0D8902036213622362336282ABB
:1041800023AEF8D7D8902436253626362736205049
:104190001C5C21501D5822501E5823501F5809E303
:1041A00020501C5E21501D5A22501E5A23501F5A67
:1041B0002480D8902332223221322032282EE2D796
:1041C00024C01CF025C01DF026C01EF027C01FF023
:1041D0001200216E2150D96EDA6ADECF1CF0DDCFDD
:1041E0001DF042EC29F02150D96EDA6A1CC0DEFFC6
:1041F0001DC0DDFF2150D96EDA6A020ED926DECF4E
:104200001CF0DDCF1DF042EC29F02150D96EDA6AA6
:10421000020ED9261CC0DEFF1DC0DDFF2150D96E65
:10422000DA6A060ED926DECF1CF0DDCF1DF042EC97
:1042300029F02150D96EDA6A060ED9261CC0DEFF9D
:104240001DC0DDFF060C01015451551156115711C7
:10425000D8B41200405001E112009CEC28F001019A
:1042600040511C5C246E41511D58256E42511E5810
:10427000266E43511F58276E2750261006E1850EE3
:10428000245C1E0E2558D8A012000001D55103E071
:10429000D56B8C8403D0010ED56F8C949CEC28F0E8
:1042A0001CC040F11DC041F11EC042F11FC043F1CE
:1042B00012007D5101016625276E00017E5101012A
:1042C0006721286E140E27240001836F000E28201A
:1042D000846F0A0E835D1A0E845904E30A0E835F0D
:1042E0001A0E845B7ACF81F07BCF82F083C07AFF95
:1042F00084C07BFF7FC023F080C024F0A9EC18F0BD
:1043000023C083F024C084F081C07AFF82C07BFF89
:1043100083C07DF084C07EF012003350375C34508F
:10432000385804E20001CE51431803E0236A246A9E
:1043300012003750335C276E38503458286E2550A1
:10434000275C2650285804E227C025F028C026F014
:1043500023C01CF024C01DF025C01EF026C01FF095
:1043600085EC25F01CC025F01DC026F02550372611
:104370002650382225C023F026C024F012002050F9
:1043800021102210231023E0010E246E06D0D890B5
:104390002036213622362336242A23AEF8D7205061
:1043A0001C5C21501D5822501E5823501F5808E3F2
:1043B00020501C5E21501D5A22501E5A23501F5A55
:1043C000D8902332223221322032242EE8D71CC04A
:1043D0001CF01DC01DF01EC01EF01FC01FF01200FB
:1043E000410E236E030E246EC9C025F0CAC026F00C
:1043F0008DEC21F023C0CBF024C0CCF023EE41F0B3
:10440000DF50D8A4120042C3E8FF020AD8A4120069
:104410009CEC28F01CC050F11DC051F11EC052F19F
:104420001FC053F16EEC24F001016DBF12006D51FD
:1044300003E16C05D8A01200030E0001D86F030C35
:10444000000EE8CF41F3100EE8CF42F323EE43F025
:10445000F9C0DFFF23EE44F0FAC0DFFF23EE45F0A2
:10446000FBC0DFFF23EE46F0FCC0DFFF23EE47F08A
:10447000FDC0DFFF23EE48F0FEC0DFFF040E0001A9
:10448000D819D8A41200410E0101E86F030EE96F9C
:10449000EB6B080EEA6F41C0ECF165EF23F0000E04
:1044A000E8CF41F3310EE8CF42F323EE43F0F9C0F9
:1044B000DFFF23EE44F0FAC0DFFF23EE45F0FBC040
:1044C000DFFF23EE46F0FCC0DFFF23EE47F0FDC028
:1044D000DFFF23EE48F0FEC0DFFF040E0001D81915
:1044E000D8A41200410E0101E86F030EE96FEB6BD7
:1044F000080EEA6F41C0ECF165EF23F0000EE8CF43
:1045000041F3300EE8CF42F323EE43F0F9C0DFFF72
:1045100023EE44F0FAC0DFFF23EE45F0FBC0DFFFDF
:1045200023EE46F0FCC0DFFF23EE47F0FDC0DFFFC7
:1045300023EE48F0FEC0DFFF040E0001D819D8A416
:104540001200410E0101E86F030EE96FEB6B080EDC
:10455000EA6F41C0ECF165EF23F0000EE8CF41F3C4
:10456000140EE8CF42F323EE43F0F9C0DFFF23EE51
:1045700044F0FAC0DFFF23EE45F0FBC0DFFF23EE7F
:1045800046F0FCC0DFFF23EE47F0FDC0DFFF23EE67
:1045900048F0FEC0DFFF040ED819D8A41200410E67
:1045A0000101E86F030EE96FEB6B080EEA6F41C083
:1045B000ECF165EF23F0000EE8CF41F3130EE8CFE6
:1045C00042F323EE43F0F9C0DFFF23EE44F0FAC0DC
:1045D000DFFF23EE45F0FBC0DFFF23EE46F0FCC01B
:1045E000DFFF23EE47F0FDC0DFFF23EE48F0FEC003
:1045F000DFFF040ED819D8A41200410E0101E86FA4
:10460000030EE96FEB6B080EEA6F41C0ECF165EF4A
:1046100023F0000EE8CF41F3120EE8CF42F323EE71
:1046200043F0F9C0DFFF23EE44F0FAC0DFFF23EED2
:1046300045F0FBC0DFFF23EE46F0FCC0DFFF23EEBA
:1046400047F0FDC0DFFF23EE48F0FEC0DFFF040EA1
:10465000D819D8A41200410E0101E86F030EE96FCA
:10466000EB6B080EEA6F41C0ECF165EF23F0000E32
:10467000E8CF41F3110EE8CF42F323EE43F0F9C047
:10468000DFFF23EE44F0FAC0DFFF23EE45F0FBC06E
:10469000DFFF23EE46F0FCC0DFFF23EE47F0FDC056
:1046A000DFFF23EE48F0FEC0DFFF040ED819D8A4C8
:1046B0001200410E0101E86F030EE96FEB6B080E6B
:1046C000EA6F41C0ECF165EF23F00001C46BC56BEC
:1046D0000101EC513DEC26F02550261012E0E8C116
:1046E00020F0E9C121F0EAC122F0EBC123F093EC04
:1046F00023F020C06CF121C06DF1CBEC12F041EF42
:1047000011F041EC11F01D6A0A0E1C6E1BEC26F034
:104710000001C44BC52BC5BFDBD7C55103E10A0E51
:10472000C45DD6E312003950C008246E3A50D8A0B8
:10473000E82A0508256E2250245C2350255804E2FF
:1047400024C022F025C023F02250392623503A22DB
:1047500039500001C75D3A50C85904E239C0C7F06A
:104760003AC0C8F020C01CF021C01DF022C01EF0CD
:1047700023C01FF076EC28F022C020F023C021F0E7
:1047800012001A0E0E01E36F0B0EE26F180E2326B5
:104790001A0E242223C0E6FE24C0E7FE20C01CF02F
:1047A00021C01DF01F6A060E1E6E76EC28F0A60EC4
:1047B0001C6E010E1D6E1F6A060E1E6E76EC28F032
:1047C000080E46EC2AF0225004E0266A060E256EFA
:1047D00002D0256A266A255046EF2AF01EC024F032
:1047E0001FC025F01CC022F01DC023F01AD024C029
:1047F000F6FF25C0F7FF000EF86E22C0D9FF23C0D8
:10480000DAFF0F0EF76403D00800F55005D0F6CF9D
:10481000E1FFF7CFE2FFE750DF6E244A252A224A64
:10482000232A2006D8A021062028E1E12128DFE163
:10483000120020EE0FF02150D9262250DA22000E6D
:10484000DF6E21C01CF022C01DF0F5EC26F0236ABB
:1048500017D023502124D96E000E2220DA6EDF50AB
:104860000AE00DD023502124D96E000E2220DA6EEA
:10487000200EDF6E232A0E0E2364F4D70E0C232A9B
:104880000E0E2364E6D70E0C000EE8CF41F3AA0EFD
:10489000E8CF42F323EE43F0F9C0DFFF23EE44F00C
:1048A000FAC0DFFF23EE45F0FBC0DFFF23EE46F04A
:1048B000FCC0DFFF23EE47F0FDC0DFFF23EE48F032
:1048C000FEC0DFFF410E0101E86F030EE96FEB6BE5
:1048D000080EEA6F41C0ECF165EF23F0000EE8CF5F
:1048E00041F3200EE8CF42F323EE43F0F9C0DFFF9F
:1048F00023EE44F0FAC0DFFF23EE45F0FBC0DFFFFC
:1049000023EE46F0FCC0DFFF23EE47F0FDC0DFFFE3
:1049100023EE48F0FEC0DFFF410E0101E86F030EF9
:10492000E96FEB6B080EEA6F41C0ECF165EF23F025
:104930009CEC28F0010148511C5C246E49511D5823
:10494000256E4A511E58266E4B511F58276E275010
:1049500008E1B90E245CC40E2558040E2658D8A0D0
:1049600012004150ABEC25F00001D86B9CEC28F014
:104970001CC050F11DC051F11EC052F11FC053F1B7
:1049800012001D6E1D50D96EDA6ADF501E6E400E89
:104990001E6408D0470E1E6005D01E50100DF35047
:1049A000900F02D01E38F00B1C6E1D50D96EDA6AC3
:1049B000D92ADF501E6E400E1E6406D0470E1E60C0
:1049C00003D01E50C90F02D01E50D00F1C261C5001
:1049D00012000101A58F735116E1C2EC14F070C0F2
:1049E0008AF071C08BF072C08CF073C08DF08AC0F9
:1049F0001FF08BC020F08CC021F08DC022F02CEC79
:104A000027F0010E736F95EC1AF0BCEC29F0EBEC7B
:104A100029F09DEC26F00101A5ADF5EC29F012007E
:104A20000001D605D8A412009CEC28F001014451E5
:104A30001C5C246E45511D58256E46511E58266E2D
:104A400047511F58276E275008E1B30E245CE10E32
:104A50002558110E2658D8A012000001D26BD66B33
:104A60000101546B556B566B576B8C94120058C1F7
:104A700020F059C121F05AC122F05BC123F001019D
:104A8000586B596B5A6B5B6B0001D06B2350221033
:104A900021100CE10C0E205C09E220C01CF021C0AA
:104AA0001DF022C01EF023C01FF01200D890233248
:104AB000223221322032000E236AEFD79CEC28F0FC
:104AC000010150511C5C246E51511D58256E5251EC
:104AD0001E58266E53511F58276E275008E15D0E51
:104AE000245C620E2558020E2658D8A012009CECB9
:104AF00028F01CC050F11DC051F11EC052F11FC062
:104B000053F1010E0001D86F010C1EC021F01FC02F
:104B100022F01C501D1009E112D01CC0D9FF1DC08D
:104B2000DAFF0D0EDF6E1C4A1D2A2106D8A02206D0
:104B30002128F3E122280AE0F0D70D0E206E21068D
:104B4000D8A022062128F9E12228F7E11EC01CF096
:104B50001FC01DF012001C6E090E1C6401D0090C50
:104B60001C50170D0C0EF324D96E020EF420DA6ED1
:104B7000DE6ADD6A1C50170D000EF324D96E020E9A
:104B8000F420DA6EDE6ADE6ADE6ADD6A1C50170D1A
:104B90000E0EF324D96E020EF420DA6E040EDF6ED0
:104BA000040C9CEC28F0010150511C5C246E515106
:104BB0001D58256E52511E58266E53511F58276E90
:104BC000275008E1E70E245CF50E2558050E2658FF
:104BD000D8A012009CEC28F01CC050F11DC051F16F
:104BE0001EC052F11FC053F10001D86B120072AF0A
:104BF00010D06DC0D9FF6EC0DAFF2D0EDF6E6D4B89
:104C00006E2B721F711F701F6F6D000E702371234A
:104C100072236DC060F06EC061F06FC062F070C052
:104C200063F071C064F072C065F073C066F074C068
:104C300067F0E3EF16F019D0040E226E13D0900E39
:104C40001E6E010E1F6E206A216A1E06000E1F5A7C
:104C5000205A215A1E28F9E11F28F7E12028F5E102
:104C60002128F3E122062228EAE11C06D8A01D062D
:104C70001C28E2E11D28E0E11200276EC2EC28F0BA
:104C8000000903E1256A266A120027500101E6198E
:104C900009E027C0E6F10001C76BC86B216A206AF2
:104CA00095EC29F027C0CEF00001C751C008256E51
:104CB000C851D8A0E82A0508266E1200010ECF6F51
:104CC0003F0408E1E2C134F1E3C135F1E4C136F15A
:104CD000E5C137F168EC2AF00009D8A412004CECC9
:104CE0002AF01CC060F01DC061F0000E61BFFF0E15
:104CF000626F636FE6EC27F020EF22F02150221064
:104D000017E0010E236E04D0D89021362236232AD4
:104D100022AEFAD721501F5C2250205804E32150C4
:104D20001F5E2250205AD89022322132232EF2D7F1
:104D30001FC01FF020C020F012000101755108E1D2
:104D4000010E756F1D6A0001D9691D2A1D50FBE017
:104D50000001D92905E0D951ABEC25F00001D96952
:104D6000040EE06FE16BE26BE36B010EDA6FDB6B5D
:104D7000DB89DB8312000101305131113211331113
:104D800014E10A0E306F000E316F326F336F3E50F8
:104D900009E187A004D0010E0001D16F06D0000107
:104DA000D16B03D087B0FBD7F6D70001D1511200E9
:104DB0003C5001E01200010E3C6EFF0E010168251F
:104DC0001C6EFF0E69211D6E0A0E1C5C1A0E1D580A
:104DD00004E31A0E1D6E090E1C6E0E01FE8D1CC022
:104DE000ECFE1DC0EDFE609C12001CC01FF01DC03B
:104DF00020F00ED0600E1E6409D07B0E1E6006D01F
:104E00001FC0D9FF20C0DAFF200EDF5E1F4A202A14
:104E10001FC0D9FF20C0DAFFDF501E6E1E50EAE12E
:104E200012001C50010166251E6E1D5067211F6E69
:104E3000140E1E24206E000E1F20216E0A0E205C10
:104E40001A0E215804E30A0E205E1A0E215A20C0C1
:104E50007AFF21C07BFF12001F502010211022106A
:104E600005E1010E1F6E206A216A226A1FC0DAF175
:104E700020C0DBF121C0DCF122C0DDF1276A2CEC7F
:104E80001FF0272A0F0E2764FAD70F0C1D6EC00ED5
:104E9000395C050E3A5801E312001D5046EC2AF029
:104EA000394A3A2A39500001C75D3A50C859D8B03A
:104EB000120039C0C7F03AC0C8F012001E6E1EC002
:104EC000B4FE1CC0F3FF1DC0F4FFF250C00B1F6EF8
:104ED0003F0EF216F3CFB6FE00F0F4CFB7FE1F5030
:104EE000F2120E018AA11200FCD724C028F125C0BD
:104EF00029F126C02AF127C02BF1010E0101766F9E
:104F00009CEC28F01CC024F11DC025F11EC026F128
:104F10001FC027F18C821200286E28C0CEF02850C6
:104F2000431803E0266A276A12003BA005D03B9095
:104F3000256A246AA2EC29F03750335C266E38507B
:104F40003458276E12001E6E1EC0B4FE00F0010E13
:104F50000E01B26F00F00E018AB1FDD7B26B00F006
:104F6000B8CE1FF000F0B9CE20F01FC01CF020C05A
:104F70001DF012008B8201012C512D112E112F11C9
:104F800007E10001D30504E1020E3D6EDBEC22F0E7
:104F9000BBEC26F00009D8A412003D6A09EF23F00B
:104FA0002C512D112E112F1105E02C07000E2D5B19
:104FB0002E5B2F5B3051311132113311D8B41200F6
:104FC0003007000E315B325B335B000C60C038F1A0
:104FD00061C039F162C03AF163C03BF18E948E86B4
:104FE0008C84010ED76FE80E246E030E256E266AA0
:104FF000276A75EF27F01C6E3350375C34503858F1
:10500000D8B0000C0001CE51431801E0000C1C5038
:10501000D96EDA6A6CEC2AF0DF6E374A382A010C56
:105020001CC022F01DC023F008D022C0D9FF23C02D
:10503000DAFF1EC0DFFF224A232A2006D8A021065D
:105040002028F3E12128F1E11200F28A00F0F29A1F
:10505000D6CF29F0D7CF2AF020EE2BF020C1DEFFEB
:1050600021C1DEFF22C1DEFF23C1DEFFF2B4EDD796
:10507000F28A1200F28A00F0F29AD6CF29F0D7CF46
:105080002AF020EE2BF020C1DEFF21C1DEFF22C17D
:10509000DEFF23C1DEFFF2B4EDD7F28A12008B806F
:1050A0000101345135113611371107E13F0405E193
:1050B000020E0001CF6FADEC22F013EC2AF00009D4
:1050C000D8B4CF6B120025EC28F02AC020F02BC0FA
:1050D00021F02CC022F02DC023F020C01CF021C0F4
:1050E0001DF022C01EF023C01FF012000AD01CC009
:1050F000D9FF1DC0DAFFDF50F36E1C4A1D2AF3CF23
:1051000061FF1E06D8A01F061E28F1E11F28EFE14F
:1051100012000001D7050FE1405001E18C8401012C
:10512000385139113A113B1106E10001D76B8E84D9
:105130008E968C94010C000C25EC28F029C020F0F0
:105140002AC021F02BC022F02CC023F020C01CF07C
:1051500021C01DF022C01EF023C01FF012003AEC47
:1051600028F029C005F02AC006F02BC007F02CC09B
:1051700008F005C001F006C002F007C003F008C047
:1051800004F01200D2A6010C9CEC28F00101705131
:105190001C5E71511D5A1D5003E1750E1C5C03E32A
:1051A000D29605EC29F0000C4150ABEC25F0000143
:1051B000D86B9CEC28F01CC050F11DC051F11EC0F2
:1051C00052F11FC053F133EF29F030302D30312D23
:1051D00032422D30302D30302D3131009E9FFE4136
:1051E00090010000B0040000FF01010E3D6ED305E8
:1051F00002E037EF23F0DEC12CF1DFC12DF1E0C179
:105200002EF1E1C12FF137EF23F0D28ED29E080E9E
:10521000246E24062428FDE16092D2869CEC28F0BE
:105220001CC070F11DC071F11200640E246E256A5D
:10523000266A276A75EC27F0BBEC26F00009D8A493
:1052400012003D6A09EF23F00101C16B050EC06F2A
:10525000C26BC36BC56B1E0EC46FC66BC76B8E84EF
:105260008E968C9412008B9E0001D66BD26B01013E
:10527000546B556B566B576B8E848E968C940001D5
:10528000D76B12001CC01FF01DC020F020C01EF004
:105290001FC020F01EC01FF01FC01CF020C01DF05A
:1052A00012009EA012009E90D40ECE6E010ECF6E04
:1052B00035EC1AF0D4EC29F0D0EC27F0C8EF29F047
:1052C0000001CF5102E136EF2AF0010A02E14FEF6F
:1052D00028F0030A02E16EEF29F01200640E246E3A
:1052E000256A266A276A75EC27F013EC2AF0000974
:1052F000D8B4CF6B12003D5002E13EEF2AF0010A14
:1053000002E1BAEF27F0030A02E115EF29F01200DB
:105310007ACF1EF07BCF1FF01CC07AFF1DC07BFF31
:105320001EC01CF01FC01DF01200350E20241C6E84
:105330001A0E21201D6E56EC2AF020C039F021C033
:105340003AF01200080E2424226E000E2520236E4F
:1053500025EC2AF024C037F025C038F012000001F7
:10536000DA51D8A41200040EE06FE16BE26BE36B3C
:10537000010EDA6FDB91010C01010E690F691069F2
:105380001169126913690A690B690C690D691200C8
:105390000001D705D8A41200320E0101385F000EBB
:1053A000395B3A5B3B5B000C3451351136113711D8
:1053B000D8B412003407000E355B365B375B000C47
:1053C0008C8E959E94969488949A9E96210EC66E85
:1053D000C78CC79E210C1D6A1D50ABEC25F01D2A01
:1053E000090E1D64F9D73B82090C0001D92905E09B
:1053F000D951ABEC25F00001D969DA6B1200010E2E
:10540000A3EC27F01C0ED96E000EDA6EDFB4010C8F
:10541000000CF2A412000101202B000E21232223F4
:105420002323F294000C0001D45103E187A2010C64
:10543000000C87A2000C010C3BB21200D8EC26F045
:10544000336A346A43683B8212000001CD51222442
:105450001C6E000E23201D6E11EF27F0D76AD66A4E
:10546000F194F294F28A870ED56E870C13EC2AF031
:10547000E80602E066EF2AF05EEF26F0BBEC26F0CD
:10548000E80602E06AEF2AF0F5EF28F01C6E1CC077
:10549000F3FFF3CF61FF1200C0C11CF0C1C11DF0CA
:1054A0001200E70502E1E76B010C000C1CC0E2FEF4
:1054B0001DC0E3FE12003D5001E1000C010C000193
:1054C000DBB1010C000CD2AA010C000C8B90120075
:0C54D000D75112008B9212000D0CFF004F
:020000040001F9
:06FFF800A0F4C5FBF8F7C0
:00000001FF
